:020000040800F2
:10000000900500209D010008631900084F180008A2
:1000100061190008DD0200080D2200080000000040
:10002000000000000000000000000000191C000893
:100030002703000800000000651900081B1C0008C9
:10004000B7010008B7010008B7010008B7010008B0
:10005000B7010008B7010008B7010008B7010008A0
:10006000B7010008B7010008B7010008B701000890
:10007000B7010008B7010008B7010008B701000880
:10008000E1020008ED020008B7010008B70100080E
:10009000B7010008B7010008B7010008B701000860
:1000A000B7010008B7010008B7010008B701000850
:1000B000B7010008B7010008B7010008B701000840
:1000C000B7010008B7010008B7010008B701000830
:1000D000B7010008B7010008BD210008B7010008FA
:1000E000B7010008B7010008B7010008B701000810
:1000F000B7010008B7010008B7010008B701000800
:10010000B7010008B7010008B7010008B7010008EF
:10011000B7010008B7010008B7010008B7010008DF
:10012000B7010008B7010008B7010008B7010008CF
:10013000B7010008B7010008B7010008B7010008BF
:10014000B7010008B7010008B7010008B7010008AF
:10015000B7010008B7010008B7010008B70100089F
:10016000B7010008B7010008B7010008B70100088F
:10017000B7010008B7010008B7010008000000003F
:10018000B7010008B7010008DFF80CD000F094F8C0
:1001900000480047E52300089005002006488047F6
:1001A00006480047FEE7FEE7FEE7FEE7FEE7FEE75C
:1001B000FEE7FEE7FEE7FEE7891C0008890100086C
:1001C0002DE9F05F0546002092469B46884606468C
:1001D000814640241BE0284641464746224600F01F
:1001E0005AF853465A46C01A914110D31146184640
:1001F000224600F041F82D1A67EB01084F462246CF
:100200000120002100F038F817EB00094E41201EB4
:10021000A4F10104DFDC484631462A46434600F09B
:1002200000B830BCBDE8C09FD2B201E000F8012B9D
:10023000491EFBD270470022F6E710B513460A4666
:1002400004461946FFF7F0FF204610BD30B50B46B7
:10025000014600202022012409E021FA02F59D42F6
:1002600005D303FA02F5491B04FA02F52844151ECA
:10027000A2F10102F1DC30BD202A04DB203A00FAB1
:1002800002F1002070479140C2F1200320FA03F3ED
:10029000194390407047202A04DB203A21FA02F0EB
:1002A0000021704721FA02F3D040C2F120029140B0
:1002B0000843194670470000064C074D06E0E06809
:1002C00040F0010394E8070098471034AC42F6D39D
:1002D000FFF75EFFF824000818250008FEE700007D
:1002E000014800F070B80000FC000020014800F058
:1002F0006AB800004401002030B590F8444004F092
:100300001C050124AC40056C6C6004686360836864
:10031000102B036803D099600068C26030BD9A60FA
:100320000068C16030BD7047704710B590F8251067
:100330000022022905D00421C16380F82420012075
:1003400010BD01680B6823F00E030B6001680B6899
:1003500023F001030B6090F84410046C01F01C03BF
:10036000012101FA03F3636080F8251080F824204E
:10037000104610BD10B590F825100024022903D0B6
:100380000421C16301241AE001680A6822F00E0208
:100390000A6001680A6822F001020A6090F84410BD
:1003A000036C01F01C02012101FA02F25A6080F88C
:1003B0002510002180F82410816B01B18847204668
:1003C00010BDC06B7047F0B4016C0C6801680D681B
:1003D00090F8442002F01C06042202FA06F323429D
:1003E00011D06B070FD50B689B0603D40B6823F065
:1003F00004030B6090F8441001F01C018A40016C6A
:100400004A60016B1DE0022303FA06F727424FF012
:10041000000C4FF0010218D0AF0716D50C68A406E7
:1004200005D40C6824F00A040C6080F8252090F8AC
:10043000441001F01C018B40016C4B6080F824C01B
:10044000C16A00291AD0F0BC08470823B3402342F0
:1004500014D02B0712D50B6823F00E030B6090F815
:100460004410036C01F01C0102FA01F15960C263EF
:1004700080F8252080F824C0416BE2E7F0BC70478B
:1004800070B568B12B4C036814212B4AA34209D2E2
:100490002A4C1C44B4FBF1F18900C0E910210BE0A7
:1004A000012070BD234C64421C44B4FBF1F189006F
:1004B0004164204908390164022180F825101C6834
:1004C00047F6F0718C43D0E902152943D0E9045670
:1004D0003543294385692943C5692943056A294369
:1004E000214319608168B1F5804F19D0036C0F2149
:1004F000934202D152F8A83F02E00E4AA03213689C
:1005000090F8444004F01C04A1408B43136090F821
:100510004430416803F01C0399401368194311608B
:100520000021C163012280F8252080F824100846AC
:1005300070BD00000804024000000240F8FFFDBF4B
:1005400070B5044690F82400002501280CD0012045
:1005500084F8240094F825600020012E06D084F849
:1005600024000225284670BD022070BD022684F8B2
:100570002560E0632068066826F0010606602046D4
:10058000FFF7BAFE206B00282068016802D041F016
:100590000E0106E021F0040101602068016841F0CD
:1005A0000A0101602068016841F001010160D9E79A
:1005B0002DE9F84FDFF898B100234FF0010C4FF010
:1005C000030A4FF00F090BF1040EB9E00CFA03F423
:1005D000224070D04D68022D01D0122D0ED1DD08C1
:1005E00000EB8508D8F820505E07F70E09FA07F6E9
:1005F000B5430E69BE402E43C8F8206007685E0010
:1006000091F804800AFA06F508F00308AF4308FAE7
:1006100006F848EA0708C0F800804F68012F05D0A7
:10062000022F03D0112F01D0122F13D1D0F8088040
:10063000CF6828EA0508B74047EA08078760D0F87E
:1006400004800F7928EA0408C7F300179F4047EA9F
:1006500008074760D1F804806FEA0807BF0706D192
:10066000C76AA743C8F3C0049C403C43C462C46843
:10067000AC438D68B5402543C5604C68E4005ED549
:10068000344C256E45F001052566246E23F00305E4
:1006900004F001040094304C2E19B4689D072F0F0C
:1006A00009FA07F5AC43B0F1904F05D02B4DA842A5
:1006B00004D101251CE042E0002519E0284DA842A4
:1006C00001D1022514E0274DA84201D103250FE0F6
:1006D000254DA84201D104250AE0244DA84201D1AC
:1006E000052505E0224DA84201D1062500E0072599
:1006F000BD402543B560DBF800405D464E6894433D
:10070000F60300D514432C60DEF8004075464E68B1
:100710009443B60300D514432C600D4D08352C6866
:100720004E689443F60200D514432C60084D0C35F6
:100730002C684E689443B60200D514432C605B1CB1
:100740000A6832FA03F57FF441AF00F013B80000F5
:100750000004014000100240000001400004004875
:1007600000080048000C0048001000480014004831
:100770000018004818BCBDE8E08F0AB181617047DD
:1007800081627047014880687047000004000020C3
:10079000024881684268114481607047040000206B
:1007A000094810B50168002441F4807101600320FC
:1007B00000F072F8002000F009F808B1012401E00F
:1007C00000F026F8204610BD0020024070B50E4E05
:1007D00005460024706898B14FF47A71B1FBF0F0CF
:1007E0000A490968B1FBF0F000F0F2FD40B9102DA4
:1007F00006D200222946501E00F02EF8356000E097
:100800000124204670BD00000400002010000020DC
:10081000094808B5016E41F001010166016E01F061
:1008200001010091816D41F080518165806D00F082
:100830008050009008BD000000100240002809DB35
:1008400000F01F02012191404009800000F1E020EA
:10085000C0F8001170470000F0B40E4B1B680C4646
:10086000C3F30223C3F10705042D00D90425191D84
:10087000072901D2002300E0DB1E012606FA05F15C
:10088000491E214099409E40761E16403143F0BCDF
:1008900001F0CEBC0CED00E0064900F0070208684C
:1008A0004FF6FF03184040EA0220034A1043086055
:1008B000704700000CED00E00000FA051649B0F5A5
:1008C000007F0868C0F3412009D0022805D00868DD
:1008D00020F4C06040F48060086000207047012868
:1008E000FBD0086820F4C06040F4007008600B483A
:1008F0003222006850430A4AB0FBF2F0401C00E08C
:10090000401E4A69520501D50028F9D148694005C1
:10091000E3D5032070470000007000401000002065
:1009200040420F000248006800F4C06070470000B9
:10093000007000402DE9F84F044600270088E54D7F
:100940003E46010504F1200B1DD5606E78B1B0F56F
:10095000800F11D0B0F5000F04D0B0F5400F22D0B9
:1009600001270FE0E86840F48030E8601BE00021D8
:10097000201D00F0F9FF03E00021584601F08AF83D
:10098000070010D03E462088C00426D5A06EC0B116
:10099000B0F1807F1AD0B0F1007F0DD0B0F1407F70
:1009A00019D0012718E0D5F88800616E20F44000C6
:1009B0000843C5F88800E6E7E86840F48030E8605E
:1009C00009E00021201D00F0CFFF03E00021584680
:1009D00001F060F80746F7B13E46206880033AD53B
:1009E000A86D4FF00008C00009D4A86D40F08050F9
:1009F000A865A86D4FF0010800F080500090DFF866
:100A0000D8A2DAF8001041F48071CAF80010FFF79C
:100A1000B9FE814610E0D5F88800A16E20F0407044
:100A20000843C5F88800D8E7FFF7ACFEA0EB090043
:100A3000022801D9032705E0DAF80000C005F3D544
:100A4000002F7CD04FEA0706B8F1000F03D0A86D45
:100A500020F08050A8652078C00707D0D5F888001E
:100A6000A16B20F003000843C5F8880020788007B8
:100A700007D5D5F88800E16B20F00C000843C5F8D5
:100A800088002078400707D5D5F88800216C20F031
:100A900030000843C5F888002078000707D5D5F84E
:100AA0008800616C20F0C0000843C5F888002078F9
:100AB000C00607D5D5F88800A16C20F44070084323
:100AC000C5F888002078800607D5D5F88800E16C45
:100AD00020F440600843C5F888002088800507D5C9
:100AE000D5F88800E16D20F440200843C5F888005F
:100AF0002088400507D5D5F88800216E20F44010E5
:100B00000843C5F888002078400607D5D5F8880046
:100B1000216D20F440500843C5F888002078000675
:100B200007D5D5F88800616D20F440400843C5F82A
:100B300088002088C00509D5D5F8880000E01CE0B1
:100B4000A16D20F440300843C5F8880020884FF09C
:100B5000006780044FF080684FD5D5F88800E16EBB
:100B600020F040600843C5F88800E06EB8423CD1F0
:100B7000E86840F48010E8603FE0D5F8900010F499
:100B8000407015D0D4F88410814211D0D5F890006F
:100B9000D5F8901020F4407041F48031C5F89010E1
:100BA000D5F8901021F48031C5F89010C5F8900068
:100BB000C00710D0FFF7E6FD074641F2883906E08E
:100BC000FFF7E0FDC11B494501D903263CE7D5F8F5
:100BD00090008007F4D5D5F89000D4F8841020F464
:100BE00040700843C5F890002EE7404505D101212B
:100BF000201D00F0B9FE00B106462068000317D59D
:100C0000D5F88800216F20F040600843C5F88800BF
:100C1000206FB84204D1E86840F48010E86007E033
:100C2000404505D10121201D00F09EFE00B1064681
:100C30002068400317D5D5F88800616F20F0406028
:100C40000843C5F88800606FB84204D1E86840F4F2
:100C50008010E86007E0404505D10121201D00F02B
:100C600083FE00B10646208840041AD5D5F88800D6
:100C7000A16F20F040500843C5F88800A06FB0F184
:100C8000805F03D0B0F1005F05D00AE00221201D93
:100C900000F06AFE03E00221584600F0FBFE00B1BE
:100CA00006462088000407D5D5F88800E16F20F0BB
:100CB00080400843C5F888002068C00307D555F870
:100CC000880FD4F8801020F0004008432860304698
:100CD00000F004B8001002400070004018BCBDE8ED
:100CE000E08F00002DE9F0470F46050058D0404E38
:100CF000306800F00700B84209D2306820F00700E1
:100D000038433060306800F00700B84248D1287896
:100D1000384CC0072CD06868032811D0022812D0A4
:100D2000216898B1490500293ADAA16821F0030148
:100D30000143A160FFF726FD804641F2883910E0AB
:100D400021688901EFE721688903ECE78907EAE771
:100D5000FFF718FDA0EB0801494502D90320BDE8C3
:100D6000F087A068696800F00C00B0EB810FEFD14C
:100D70002878800705D5A068A96820F0F00008430E
:100D8000A060306800F00700B8420BD9306820F04E
:100D9000070038433060306800F00700B84201D0E7
:100DA0000120DCE72878400705D5A068E96820F431
:100DB000E0600843A0602878000706D5A06829698C
:100DC00020F4605040EAC100A06000F03FF8A16844
:100DD000094AC1F30311515C01F01F01C8400749E2
:100DE000086007480068BDE8F047FFF7EFBC000067
:100DF0000020024000100240B02400081000002033
:100E0000040000200548064900688968054AC1F3C6
:100E10000221515C01F01F01C84070471000002002
:100E200000100240F024000805480649006889685F
:100E3000054AC1F3C221515C01F01F01C84070474F
:100E40001000002000100240F024000870B5254971
:100E5000002318468A68CC6812F00C0204F00306DE
:100E6000214C4FEA640509D00C2A05D0042A32D05F
:100E7000082A00D1284670BD012E10D10B681B072F
:100E800004D4D1F89430C3F3032302E00B68C3F316
:100E90000313164E56F82330DAB10C2AEBD1C8688A
:100EA00000F00300022818D0032818D01846CA689A
:100EB000CB68C2F30212C3F306234343521CB3FBB5
:100EC000F2F2C868C0F34160401C4000B2FBF0F091
:100ED00070BD184670BD204670BD2046E7E7284625
:100EE000E5E70000001002400024F400C0240008E0
:100EF0002DE9F84304006ED0FD4DA86800F00C0603
:100F0000E86800F003072078C00663D576B10C2EA0
:100F100001D1012F0AD0A0690028286878D040F0BC
:100F200001002860FFF72EFC80465BE02868800700
:100F300002D5A0690028DED0216A2868000703D501
:100F4000286800F0F00004E0D5F89400F02202EAEE
:100F50001010814216D9084600F020FE00283AD130
:100F6000286840F0080028602868216A20F0F00016
:100F7000084328606868E16920F47F4040EA012066
:100F8000686015E0286840F0080028602868216A39
:100F900020F0F000084328606868E16920F47F4091
:100FA00040EA01206860206A00F0F8FD0028D6D1F0
:100FB000FFF74CFFA968CF4AC1F30311515C01F060
:100FC0001F01C840CC490860CC480068FFF7FEFB11
:100FD00000287DD12DE0C9E0FFF7D4FBA0EB08008D
:100FE000022876D828688007F6D5286840F00800DF
:100FF00028602868216A20F0F000084328606868AB
:10100000E16920F47F4040EA0120686011E0FFE7D9
:1010100020F001002860FFF7B5FB804606E000BF26
:10102000FFF7B0FBA0EB08000228DAD82868800799
:10103000F6D42078C00740D0082E18D00C2E01D14D
:10104000032F14D06068B0F5803F17D0B0F5A02F03
:10105000286817D020F480302860286820F4802089
:1010600028606068E0B1FFF78DFB804614E02868D7
:10107000800322D56068002878D01EE0286840F4FC
:101080008030EDE740F480202860F7E7FFF77AFB37
:10109000A0EB08006428A4D828688003F6D50CE0EB
:1010A000FFF770FB804605E0FFF76CFBA0EB080044
:1010B000642896D828688003F6D4207880073BD52A
:1010C000042E11D00C2E01D1022F0DD0E06801E0CA
:1010D0003EE19FE0002828681ED040F48070286020
:1010E000FFF750FB07460CE0286840050CD5E06888
:1010F0000028C1D008E000BFFFF744FBC01B022856
:1011000093D828684005F7D56868217C20F0F8500E
:1011100040EA016068600FE020F480702860FFF70B
:1011200031FB074605E000BFFFF72CFBC01B022880
:1011300070D828684005F7D42078000729D5606961
:101140000028D5F8940012D040F00100C5F89400B2
:10115000FFF718FB074604E0FFF714FBC01B02284B
:1011600058D8D5F894008007F6D512E029E120F090
:101170000100C5F89400FFF705FB074605E000BF36
:10118000FFF700FBC01B022844D8D5F89400800765
:10119000F6D42078400768D5A86D0027C00008D491
:1011A000A86D40F08050A865A86D012700F0805020
:1011B000009053480168C90512D40168814641F482
:1011C00080710160FFF7DEFA804605E0FFF7DAFA8A
:1011D000A0EB080002281DD8D9F80000C005F5D5FD
:1011E000A068012817D00528D5F8900018D020F065
:1011F0000100C5F89000D5F8900020F0040000BF71
:10120000C5F89000A06841F28839D0B1FFF7BAFA6A
:10121000804611E06BE0D5F8900040F00100EFE768
:1012200040F00400C5F89000F5E700BFFFF7AAFA08
:10123000A0EB080149455AD8D5F890008007F5D5AC
:101240000EE0FFF79FFA804606E000BFFFF79AFA2C
:10125000A0EB080149457AD8D5F890008007F5D46D
:101260001FB1A86D20F08050A865A06AF0B30C2EC5
:1012700075D00228286820F08070286004D0286883
:1012800010F0205F51D054E0FFF77CFA064604E0EE
:10129000FFF778FA801B022859D828688001F7D414
:1012A000D4E90B016FF00F0202EB01110843A18F8B
:1012B0005204490802EB4151626B41EA02210843A2
:1012C00094F840104FF07E42490802EB4161084318
:1012D000A16B090940EA4140E9680A4A1140084304
:1012E000E860286840F0807028600DE06BE02EE038
:1012F00000100240B024000810000020040000206C
:10130000007000408C809DF9E86840F08070E860D3
:10131000FFF738FA044604E0FFF734FA001B02280E
:1013200015D828688001F7D54DE0E86820F0030063
:10133000E860E86825490840E860FFF723FA0446BA
:1013400009E000BFFFF71EFA001B022803D90320A3
:10135000BDE8F88303E028688001F3D433E0012876
:10136000F6D0E868E26A00F00301914229D1216BCE
:1013700000F0700209011039914222D1626B00F431
:10138000FE41B1EB022F1CD1A26B00F40031072A01
:1013900001D0012200E00022914212D1A18F00F47D
:1013A000C00249084905A1F50011914209D194F8FC
:1013B000401000F0C06049084906A1F10071814267
:1013C00001D00120C4E70020C2E70000FFFFEEFECD
:1013D00010B5401EB0F1807F01D3012010BD4FF049
:1013E000E02460610F21601700F022FF0020A0615F
:1013F00007202061002010BD704770B5416F044682
:10140000856F006882684FF01006120612D52129F8
:1014100010D1816821F080018160A06E38B1FEF7A3
:1014200084FF20B1A06EFEF7CCFF20281BD0204601
:1014300000F03CFD20688168490612D5222D10D1AC
:10144000816821F040018160E06E38B1FEF76DFFE8
:1014500020B1E06EFEF7B5FF202804D0204600F052
:1014600016FD002070BDE667032070BD70470000C8
:101470002DE9F04102680446D0691168936810F0C4
:101480000F0F4FF000055BD003F0010601F49077D9
:10149000374369D0C70707D0CF0505D501271762A5
:1014A000E26F42F00102E267820708D5DA0706D050
:1014B000276802223A62E26F42F00402E2674207C2
:1014C00008D5DA0706D0236804221A62E26F42F0D8
:1014D0000202E26702070AD501F02002324306D079
:1014E000236808221A62E26F42F00802E267E26FA4
:1014F000002A32D0800605D5880603D5216E09B1B1
:1015000020468847E06F21688968490601D40007B2
:1015100025D5204600F0BBFC20688168490619D516
:10152000816821F040018160E06E98B120498163BB
:10153000E06EFEF71FFF00280FD0E06E816B06E023
:10154000860611D58E060FD5216E1EE02046BDE819
:10155000F04108472046FFF789FFBDE8F0812046AB
:10156000FFF784FFE567F8E7C60209D55B0207D5F8
:101570004FF4801010622046BDE8F041FFF73CBFF9
:10158000030605D50B0603D5616E0029DED1E4E71D
:101590004006E2D54806E0D51168204621F040011A
:1015A000116020216167656600F050F9D5E7000001
:1015B000ED1D000810B5040002D0606F10B107E007
:1015C000012010BD002084F87000204600F026F8AD
:1015D000242060672068016821F001010160204635
:1015E00000F06CFC0128ECD0606A10B1204600F0DD
:1015F0006DFB2068416821F490414160206881685A
:1016000021F02A0181602068016841F00101016038
:101610002046BDE8104000F0BDBB00002DE9F043BE
:1016200087B0064614216846FEF705FE2E4930684D
:10163000884255D12D48816D41F400318165816D1D
:1016400001F400310591C16C41F00101C164C06C2D
:101650004FF0020900F0010005900C20CDE90009CF
:1016600000250320CDE90250072004904F4669462B
:101670004FF09040FEF79CFF1E4C1D484FF0200895
:101680002060C4E901758027C4E903576561C4E996
:10169000065820462562FEF7F3FE08B1FEF744FE29
:1016A000F466A662134C124848341430E4E8020988
:1016B0001020A1C40F4844F814594830C4E9065812
:1016C0002562FEF7DDFE08B1FEF72EFEB4660022AD
:1016D00011462620A662FFF7BFF82620FFF7AEF8D6
:1016E00007B0BDE8F0830000004400400010024055
:1016F0006C000240FC00002070B50446806F20287A
:101700003FD149B342B394F87000012839D0012089
:1017100084F870006165A4F858200025E567222050
:10172000A067E06ED0B11849C162E16E1748134658
:101730000863E16E16484863E06E8563666D216854
:1017400032462431E06EFEF7FBFE38B11020E06730
:1017500084F8705020206067012070BD84F87050BC
:101760002068016841F4807101602068816841F05F
:10177000010181602068816841F0400181600020A2
:1017800070BD022070BD0000491E0008851E0008C3
:10179000011E0008704770472DE9F8430446406F6A
:1017A0001F4616460D4620284ED1CDB1C6B194F83D
:1017B0007000012848D0012084F870004FF0000824
:1017C000C4F87C8021206067FEF7DCFFA4F850603D
:1017D0008146A4F85260A068B0F5805F03D004E0B1
:1017E0000120BDE8F883206910B12E46002510E0E5
:1017F00000260EE08021204600F0B0FCB8B9C6B14A
:1018000016F8010B21680885B4F85200401EA4F8B0
:101810005200B4F852004B464FF0000200970028E7
:10182000E8D14FF04001204600F098FC30B1032091
:10183000D7E735F8020BC0F30800E3E72020606724
:1018400084F870800020CCE70220CAE77047FEE7EA
:101850000D4808B5816C41F001018164806C002263
:1018600000F00100009011461020FEF7F5FF102057
:10187000FEF7E4FF002211461120FEF7EDFFBDE860
:1018800008401120FEF7DABF0010024030B587B0E3
:1018900014216846FEF7CFFC1F48C16C41F00401DB
:1018A000C164C16C01F004010591C16C41F080017B
:1018B000C164C16C01F080010591C16C41F001016E
:1018C000C164C16C01F001010591C16C41F00201DC
:1018D000C164C06C4FF0904500F0020005900022FA
:1018E00020212846FEF749FF4FF4005000900B4896
:1018F0000024CDE9010469460948FEF759FE20207D
:1019000000900120CDE90104694628460394FEF7C2
:101910004FFE07B030BD0000001002400000211053
:10192000000800480D4810B50B4901604FF4E13143
:101930004160002181600C22C160C0E90412816114
:10194000C16101624162FFF735FE002803D0BDE8A6
:101950001040FEF7E9BC10BD004400407C000020B0
:10196000FEE77047704700002DE9F041444C054602
:101970008846E0680026810728680DD0E16801F0FC
:101980000301814216D1A8B1E0686968C0F3021072
:10199000401C88420ED120E0012804D0022805D046
:1019A000032807D108E02168890701E0216849057B
:1019B000002907DB01265FE02168890302D4216842
:1019C0004903F5E7E1686A686FF00F0321F07301DE
:1019D00003EB021211430143E160206820F08060B4
:1019E0002060FEF7CFFE074605E000BFFEF7CAFE07
:1019F000C01B022837D820680001F7D4B8F1000FC7
:101A000018D0B8F1010F1ED0287D4FF07E4140085C
:101A100001EB4060A96840EA01202169194A1140A0
:101A200008432061206840F080602060FEF7AAFE35
:101A300007461AE0A868E9680002090940EA41403F
:101A40002169114AEBE7288A1049400801EB405010
:101A5000A96840EA012021690D4AE0E7FEF792FEFD
:101A6000C01B022801D9032606E020680001F5D535
:101A70002069A969084320613046BDE8F081000073
:101A800000100240FF80FFF9FF80FDFF0000E0FF33
:101A9000FF809FFF2DE9F0413D4C06468846E068F7
:101AA0000025810730680DD0E16801F00301814213
:101AB00016D1A8B1E0687168C0F30210401C8842DA
:101AC0000ED120E0012804D0022805D0032807D138
:101AD00008E02168890701E021684905002907DB42
:101AE000012551E02168890302D421684903F5E703
:101AF000E16872686FF00F0321F0730103EB0212CB
:101B000011430143E160206820F080502060FEF71F
:101B100039FE074605E000BFFEF734FEC01B022871
:101B200029D820688000F7D4B8F1000F15D0307C98
:101B30004FF07E41400801EB4060B16840EA01206F
:101B40006169144A114008436061206840F0805088
:101B50002060FEF717FE07460FE0B068F16800024C
:101B6000090940EA414061690B4AEBE7FEF70AFECA
:101B7000C01B022801D9032506E020688000F5D5A6
:101B800060697169084360612846BDE8F081000022
:101B900000100240FF80FFF9FF80FDFFF8B51C4DEB
:101BA00006460024A86DC00002D5FEF7BBFE0DE07E
:101BB000A86D40F08050A865A86D00F0805000909E
:101BC000FEF7B0FEA96D21F08051A965B0F5007F48
:101BD00004D0802E07D94FF003040AE0802E08D9E4
:101BE000A02E01D804E001D1022402E0702E00D121
:101BF00001240848016821F00701214301600068C1
:101C000000F00700A04201D00120F8BD0020F8BD7F
:101C100000100240002002407047FEF7B9BD30B509
:101C2000B9B0442122A8FEF706FB142133A8FEF721
:101C300002FB88216846FEF7FEFA01200224010417
:101C40002C940325CDE92201CDE92D5014202F90AD
:101C50000720CDE9300422A83294FFF749F90F207C
:101C6000CDE93305002535953695042133A8379500
:101C7000FFF738F80F9568460094FEF75BFE2002E8
:101C8000FEF71CFE39B030BD0D48016841F470010B
:101C900001600C48016841F0010101600021816090
:101CA0000268094B1A4002608214C260026822F482
:101CB0008022026081610249C00380390860704758
:101CC00088ED00E000100240FFFFF6EA90F82410D3
:101CD000C90706D001684A68836A22F400321A43B1
:101CE0004A6090F82410890706D501684A68C36ADB
:101CF00022F480321A434A6090F82410490706D52E
:101D000001684A68036B22F480221A434A6090F803
:101D10002410090706D501684A68436B22F4004283
:101D20001A434A6090F82410C90606D501688A68EB
:101D3000836B22F480521A438A6090F8241089063B
:101D400006D501688A68C36B22F400521A438A6080
:101D500090F82410490611D501684A68036C22F4F2
:101D600080121A434A60016CB1F5801F06D10168E8
:101D70004A68436C22F4C0021A434A6090F8241067
:101D8000090606D501684A68806C22F400220243E5
:101D90004A607047F8B500260446C667FEF7F2FCB5
:101DA0000546206800686FF07E47000708D52B467F
:101DB00000224FF400112046009700F0CFF960B9DF
:101DC0002068006840070AD52B4600224FF48001A6
:101DD0002046009700F0C2F908B10320F8BD20208A
:101DE0006067A06784F870600020F8BD10B5806A55
:101DF0000021A0F85A10A0F85210FFF737FB10BDD1
:101E000070B5846A606FA56F216889684FF000061D
:101E1000090606D5212804D1A4F85260204600F016
:101E200045F820688068400606D5222D04D1A4F824
:101E30005A60204600F02BF8E06F40F01000E06799
:101E40002046FFF713FB70BD10B50146806A096894
:101E50000968890613D40021A0F85A1001680A689D
:101E600022F480720A6001688A6822F001028A60A6
:101E700001688A6822F040028A6020218167FFF7AA
:101E800089FC10BD10B5806AFFF785FC10BD0168A4
:101E90000A6822F490720A6001688A6822F00102DE
:101EA0008A602021816700210166704701680A6805
:101EB00022F0C0020A602021416770472DE9F041FD
:101EC0000546016880682B69EC6918436B69002737
:101ED00023431843954A0B68954C234003430B60FA
:101EE00028684168EB6821F4405119434160296832
:101EF000A869914201D02B6A18438B6823F43063A0
:101F000003438B608B4B29688B4899420DD1D0F8E5
:101F1000880010F0030006D0012868D0022864D0A1
:101F2000032851D165E001244FE0844B99420BD145
:101F3000D0F8880010F00C0055D0042857D008289D
:101F400053D00C2840D154E07D4B99420BD1D0F8AE
:101F5000880010F0300046D0102848D0202844D007
:101F6000302831D145E0774B99420BD1D0F8880029
:101F700010F0C00037D0402839D0802835D0C02894
:101F800022D136E0704B99420ED1D0F8880010F47F
:101F9000407028D0B0F5807F29D0B0F5007F24D0E4
:101FA000B0F5407F10D124E091420DD1D0F88800E7
:101FB00010F4406017D0B0F5806F18D0B0F5006F06
:101FC00013D0B0F5406F14D01024604B00264FF4AE
:101FD0000040914245D174B1022C0FD0042C0FD097
:101FE000082C18D10FE00024EFE70224EDE70424C9
:101FF000EBE70824E9E7FEF705FF03E0184602E0F7
:10200000FEF724FFA8B36A6802EB4201814202D8BE
:10201000B0EB023F01D9012775E0DFF834815CB1F4
:10202000022C0CD0042C13D0082CF4D1500821051C
:10203000401846F1000105E0FEF7E4FE0AE0500812
:102040004449F5E70023FEF7BBF8A0F5407156E0E0
:10205000FEF7FCFE6A68010E030250081818714171
:10206000F0E7E9694FF6EF7881422FD1092CD2D2FF
:1020700000E048E0DFE804F0060920052305050537
:102080002600C8E7FEF7BEFE01E0FEF7CDFE4100E8
:10209000D5F8040001EB5001B1FBF0F080B2A0F1E3
:1020A00010014145B7D84FF6F0710140C0F342002E
:1020B00001432868C16026E027496868EAE7FEF71F
:1020C000C5FEE4E74FF480316868E3E7092CA2D24B
:1020D000DFE804F006091E052205050525009AE73C
:1020E000FEF790FE01E0FEF79FFE0146686801EBF7
:1020F000500100BFB1FBF0F080B2A0F110014145EA
:1021000089D82968C8602E6638466E66BDE8F081B9
:10211000686803EB5001EDE7FEF798FEE5E76968B4
:1021200000EB5100B0FBF1F0E6E70000008000405A
:10213000F369FFEF00380140001002400044004006
:1021400000480040004C0040005000400024F400D3
:10215000FFFC0F00000024F40048E8012DE9F041E5
:10216000984617460E460446069D08E0681C06D0B1
:10217000FEF708FBA0EB0800A8420BD855B1206879
:10218000C06936EA000017D00020B842EED0002027
:10219000BDE8F0812068016821F4D07101602068F9
:1021A000816821F00101816020206067A067002024
:1021B00084F870000320EBE70120E6E710B50E4835
:1021C000FFF756F90C480D490068884212D1C169E1
:1021D000C94389060ED4102101620748FFF70DF9A3
:1021E0000748006840680749C0F164000870064964
:1021F0000120087010BD00007C0000200044004059
:10220000FC0000200100002000000020FEE700008C
:102210000FB4054B10B503A9044A029800F028F842
:1022200010BC5DF814FB0000CD2300081400002052
:102230000907090E002804DB00F1E02080F80014F3
:10224000704700F00F0000F1E02080F8141D704787
:1022500002E008C8121F08C1002AFAD1704770476F
:10226000002001E001C1121F002AFBD170470000CD
:102270002DE9FF4F89B09B460446002506E025283E
:102280000BD05A460B999047641C6D1C207800288F
:10229000F5D10DB0284600F095B80027B8460122C8
:1022A000474900E0074314F8013F203B02FA03F0DE
:1022B0000842F7D120782E2819D114F8010F47F0E1
:1022C00004072A280ED06FF02F022078A0F13001E9
:1022D00009290CD808EB880102EB410100EB010849
:1022E000641CF2E70A98641C50F8048B0A9020786A
:1022F0000028CED0642808D0692806D075281ED0C2
:102300005A460B9990476D1C58E00A994FF00A09FC
:1023100001C90A91002802DA40422D2102E0390564
:1023200004D52B218DF82010012103E0F90704D0FA
:102330002021F7E78A4608AE0DE00021FAE70A9966
:102340004FF00A0901C90A91F7E74946FDF77EFFF8
:10235000303106F8011D0028F7D1ADEB060000F181
:102360002009780701D44FF00108C84502DDA8EB29
:10237000090000E000208046002706E008A85A4631
:10238000C05D0B9990476D1C7F1C5745F6DB04E040
:1023900030205A460B9990476D1CB8F10001A8F106
:1023A0000108F5DC05E016F8010B5A460B99904739
:1023B0006D1CB9F10001A9F10109F4DC641C65E7A9
:1023C0000928010030BCBDE8C08F000013B54FF6EE
:1023D000FF73012269460248FFF7DEF900981CBD31
:1023E0007C000020FEF7DCF9FFF719FCFFF74EFA3E
:1023F000FFF72EFAFFF796FA17A0FFF709FF20481C
:102400000068016841F01001016064221D491C4808
:10241000FFF772F91B4D1C4E30780128FCD1642166
:102420001AA0FFF7F5FE00241CA0295DFFF7F0FEBF
:10243000641CE4B2642CF7D3002002462A54401CEA
:102440000021C0B26428F9D3317064220D490C48D0
:10245000FFF752F9E0E700005468697320697320C0
:102460006120555341525420444D412052656365CB
:1024700069766520546573742121210D0A000000DE
:102480007C00002018000020000000206C656E67B2
:102490007468203D202564200D0A00005278627582
:1024A000666665725B695D203D202564200D0A002B
:1024B00000000000000000000102030406070809F4
:1024C000A0860100400D0300801A060000350C00B4
:1024D00040420F0080841E0000093D0000127A0077
:1024E0000024F40000366E010048E801006CDC02B4
:1024F000000000000102030418250008000000206D
:1025000018000000502200083025000818000020A4
:1025100078050000602200080000000010000000A4
:10252000010000000000000000093D000000000064
:040000050800018965
:00000001FF
